S01A00004154696E79514333436F6E74726F6C6C65722E737265633A
S11300000EC01DC01CC06BC01AC019C018C017C0D8
S113001016C015C014C013C012C011C010C01124E2
S11300201FBECFE5D1E0DEBFCDBF20E0A0E6B0E04B
S113003001C01D92A436B207E1F73CD067C0E0CFFF
S113004084E090E0C49AEFEBFDE53197F1F700C04E
S11300500000C498EFEBFDE53197F1F700C0000014
S1130060019781F7089585B1813F10F4369AFBCF4B
S11300700895809160009091610021E030E0009744
S113008011F020E030E03093610020936000892B70
S113009011F4C49A01C0C4988FE493EC0197F1F76A
S11300A000C000000895DFDFE4DF369A85B1813FA8
S11300B0D8F7C6CF88E187BB3D9A85E886B93898DA
S11300C0369A8FE99FE00197F1F700C00000369A55
S11300D085B1813FE0F7B4DFE6DFC5DFF8CF1F92DB
S11300E00F920FB60F9211248F939F938091620009
S11300F090916300019690936300809362009F91B6
S11301008F910F900FBE0F901F901895F894FFCF0A
S9030000FC
