S01A00004154696E79514333436F6E74726F6C6C65722E737265633A
S11300002DC047C046C045C044C006C242C041C01E
S113001040C03FC03EC03DC03CC03BC03AC0373F7B
S11300203779393739381C3F387877393E315E3F74
S113003037797C793D3738795E007F000000007F96
S1130040000000007F000000007F373F31155E068E
S11300506D393F065B4F666D7D077F6F11241FBEB0
S1130060CFE5D1E0DEBFCDBF10E0A0E6B0E0EEE327
S1130070FBE002C005900D92A639B107D9F720E044
S1130080A6E9B0E001C01D92A93AB207E1F77FD119
S113009054C5B6CF8EE790E00895CF93DF9381E007
S11300A078D4FFD180E090E009D2389A369A8FEC68
S11300B097E00197F1F700C00000C5B1D0E0649665
S11300C083E0CC0FDD1F8A95E1F7C13D97E0D907A6
S11300D010F0C0EDD7E0CB3D81E0D80710F4CBEDB4
S11300E0D1E0CE01C7D4D6D120919D0030919E009D
S11300F026503F4F2817390728F480E090E0DED1DE
S1130100BED415C0C7D120919D0030919E002C59BA
S11301103F4F2817390758F44ED4882371F3CB3D49
S113012091E0D90751F3C03D87E0D80731F33898FF
S1130130369A8FEC97E00197F1F700C0000085B183
S1130140873E08F0B2CF81E024D417D2813039F051
S1130150843009F0A6CFD0939700C093960081E035
S113016018D48EE790E0DF91CF9108959F92AF92DB
S1130170BF92CF92DF92EF92FF920F931F93CF9390
S1130180DF938091960090919700892B09F498C091
S113019081E0FFD38BE026D42FE783E891E0215060
S11301A080409040E1F700C000002091960030911B
S11301B09700C1E0253D84E0380708F0C0E081E005
S11301C0253D344008F480E0C81B0C2E000CDD0BE8
S11301D0CE0168EE73E08CD48C01CE016AE070E04D
S11301E087D47C018AE0A82EB12C94E6C92ED12CA8
S11301F02091960030919700C901B5018AD4892BCA
S113020019F02C0F3D1F08C02B3D91E03907C8F3AE
S113021060FF09C02E0D3F1D309397002093960078
S11302209924939405C0213D87E03807B8F5912CB3
S113023080919600909197001DD48FEB9DE50197D6
S1130240F1F700C000009110D3CF809196009091F7
S1130250970010D462E084E018D4809196009091C5
S1130260970090938E0080938D00109297001092C7
S113027096009FE723E881E0915020408040E1F719
S113028000C0000084E0AED39FE723E881E09150F2
S113029020408040E1F700C0000012C0CB01B5014E
S11302A038D4892B09F0B6CFC901B60132D4CB01B9
S11302B0B5012FD4892B09F4BACF200F311FACCF4D
S11302C0DF91CF911F910F91FF90EF90DF90CF902E
S11302D0BF90AF909F9008950F931F93CF93DF9398
S11302E0BAD120918D0030918E00CAE0D0E0BE01D9
S11302F010D462177307E1F0C9016AE070E0F8D323
S113030089D200918D0010918E00A5D1BE0101D437
S1130310CB0170938E0060938D000617170741F090
S1130320A9D362E084E0DF91CF911F910F91ADC317
S1130330DF91CF911F910F91089518DFCDDF389889
S1130340369A8FEC97E00197F1F700C000008FE92F
S11303509FE00197F1F700C0000080918D0090911B
S11303608E0088D3369A8FEC97E00197F1F700C09E
S1130370000085B1873E88F700D1823029F08330B0
S113038061F780E690E0089585E790E00895A3D0B2
S113039081E070D13DD09AD385E024D364E084E039
S11303A074D379D12FE783E891E0215080409040C5
S11303B0E1F700C000008EE790E08FD280E090E08B
S11303C00895369A8FEC97E00197F1F700C000008A
S11303D080919800882329F085B1873E30F482E02B
S11303E005C095B181E0973E08F080E080939800C5
S11303F0809198000895389885B1873E40F4369AE4
S11304008FEC97E00197F1F700C00000F5CF089555
S11304103D9A85E886B908951F920F920FB60F9200
S113042011242F933F934F935F936F937F938F93F5
S11304309F93AF93BF93EF93FF9380919900909113
S11304409A00985F20919B0030919C00E8EEF3E0C5
S1130450893E43E0940728F0BF015BD3260F371F82
S1130460F7CF90939A008093990030939C00209347
S11304709B00FF91EF91BF91AF919F918F917F91DD
S11304806F915F914F913F912F910F900FBE0F90FD
S11304901F901895F89480919B0090919C007894FB
S11304A00895F89410929C0010929B0010929A0068
S11304B01092990078940895F8940895CF93DF9357
S11304C0EC01E8DF8C0F9D1F90939E0080939D00AC
S11304D0DF91CF91089583B7826083BF89B782602B
S11304E089BF0895E091A700F091A80090818091C0
S11304F08F00891718F061E088E0C7C262E084E0E9
S1130500C4D22091A7003091A80080918F0090E080
S113051063E070E0EDD2820F931FDC011796ED913A
S1130520FC911897099567CF80918F008F5F809316
S11305308F00E091A700F091A8009081891728F01E
S113054080E050D280E090E0089590E063E070E0B5
S1130550CFD2E80FF91F868145D28091A7009091F0
S1130560A8009C012A5F3F4F80918F0090E063E0D8
S113057070E0BED2820F931F08951F93CF93DF9331
S11305801AD2182F81E005D238988FED9EE2019798
S1130590F1F700C00000369A8FEC97E00197F1F76D
S11305A000C000007EDFE091A700F091A8008381E5
S11305B081110BC08FEF80938F00B6DFEC0171DFE8
S11305C080E991E07BDFFDDE38C085B1873E90F79E
S11305D0369A8FEC97E00197F1F700C000005ADFDC
S11305E08132934090F3E091A700F091A8008381B9
S11305F0F9D162E084E049D2E091A700F091A8002B
S11306000480F581E02D0995F6DE812FC2D1E091B9
S1130610A700F091A80083811AC03CDF20919D00BF
S113062030919E008217930750F4CBDE813029F479
S113063080E991E043DF78DFEC01209771F73CDF3C
S1130640812FA7D14FDF8FEF80938F008881DF91B7
S1130650CF911F91089580919000909191000895F9
S1130660C098B89A0895B8980895C09AB89A089509
S1130670B99808958093A60014DFFADFF4DF0ADF47
S11306808C3D9540E0F3ECDF8FE99FE00197F1F7B3
S113069000C0000011CFECDFE3DF2FEF86E791E02D
S11306A0215080409040E1F700C0000088E893E1C9
S11306B0909391008093900010929F0008958091F0
S11306C09F008111E8DFD4DFCEDF2FEF86E791E0D2
S11306D0215080409040E1F700C0000080EE9EE28F
S11306E090939100809390000895C2DFBEDF2FEFB6
S11306F086E791E0215080409040E1F700C000007F
S113070081E080939F0008958091900090919100E2
S113071081319E4098F080919F00811101C0E5DFF6
S1130720A2DF8FEC97E00197F1F700C000009DDF96
S11307308FEC97E00197F1F700C0000080919000E2
S113074090919100885C910990939100809390001E
S11307500895C19AB99A089580919F0081119BDFF1
S1130760F8DF81DF2FEF86E791E021508040904051
S1130770E1F700C0000088E293E290939100809337
S1130780900008958091A6008823A9F080919F008D
S1130790811181DFDEDF69DF2FEF86E791E02150F1
S11307A080409040E1F700C0000080E29EE4909316
S11307B091008093900008958091A600811103C058
S11307C080EE9EE202C080E29EE42091900030918F
S11307D091002817390798F480919F00811101C076
S11307E084DFB7DF8FEC97E00197F1F700C00000DA
S11307F03FDF8FEC97E00197F1F700C00000809194
S113080090009091910088539F4F90939100809312
S113081090000895CF93DF9381312EE09207E0F0AA
S11308202091A600211103C040EE5EE202C040E226
S11308305EE48417950728F0211111C0C0EEDEE2B2
S113084010C08D599F4F68EC70E063D1CB0168EC08
S113085070E04ED1EC0105C0C0E1DEE002C0C0E2B0
S1130860DEE48091900090919100C817D90791F12E
S1130870C83223E2D20799F038F4C83823E1D2070A
S1130880A1F4DF91CF9107CFC03E2EE2D20751F001
S1130890C0322EE4D20749F4DF91CF9173CFDF91B8
S11308A0CF915ACFDF91CF910ACF8C179D0748F48F
S11308B080919000909191008C179D0758F47CDFF3
S11308C0F7CF8091900090919100C817D90710F448
S11308D01BDFF7CFDF91CF9108959093A800809309
S11308E0A70089DDE091A700F091A8000180F281C2
S11308F0E02D0995F2CF0895C39AC49A8DE08A95A4
S1130900F1F70000C3980895C4988DE08A95F1F733
S11309100000C3988DE08A95F1F70000C49A8DE039
S11309208A95F1F70000C39A089598E0C4982DE0E1
S11309302A95F1F7000080FF02C0C39A01C0C39852
S1130940C49A2DE02A95F1F700008695915071F72D
S1130950C498BB98C39A8DE08A95F1F7000096B3CA
S113096081E0292F287093FF80E0222311F0BB9AA5
S1130970C3989DE09A95F1F70000C49A2DE02A955A
S1130980F1F70000C4989DE09A95F1F70000BB9A36
S11309900895CF93982F8093A1006FE0A0D0809307
S11309A09200911102C0C0E801C0C8E8A5DF8C2FF5
S11309B0BCDFCF91A9CF8091A1000895CF93DF939D
S11309C09BDF80E4B2DFA0DF97DF80ECAEDFC2EA1A
S11309D0D0E08991AADF80E0C63AD807D1F7DF9149
S11309E0CF9192CF91E09093A00090E090939400E7
S11309F080939300880F991F880F991FFC01E25E72
S1130A00FF4FE491A2EAB0E0EC93FC01E15EFF4FFA
S1130A10E4911196EC931197FC01E05EFF4FE49191
S1130A201296EC931297FC01EF5DFF4F849113969D
S1130A308C93C4CFCF93DF931092A0008093930044
S1130A4090939400C6EAD0E02AE030E0B90161D086
S1130A50FC01EE5AFF4FE491EA93CB0140E0C23A25
S1130A60D407A1F78091A30080688093A300DF914D
S1130A70CF9108952FE020939200DCDF9FCF81E097
S1130A809091A100911180E084CF1F93CF93DF93C5
S1130A90D82F162FC0E0CD1771F0F1DF80E0811759
S1130AA041F0EFEDFEE23197F1F700C000008F5FF7
S1130AB0F6CFCF5FF0CFDF91CF911F910895E2EA97
S1130AC0F0E0108211821282138278CF87B388619A
S1130AD087BB88B3877E88BB81E05BDFF0CF0024CF
S1130AE080FD060E660F11F08695D1F7802D0895CE
S1130AF00024552704C0080E591F880F991F00971A
S1130B0029F076956795B8F37105B9F7802D952F7F
S1130B100895AA1BBB1B51E107C0AA1FBB1FA61740
S1130B20B70710F0A61BB70B881F991F5A95A9F792
S1110B3080959095BC01CD010895F894FFCFF7
S1130B3E054A00047B04077B04087B04097B040A32
S1130B4E7B04017B04014D00047B04017B04039DA3
S1130B5E01000000063F05027B04037B04F401FF41
S1090B6E88130FFFFF00D5
S9030000FC
