:1000000031C04BC04AC049C048C02EC246C045C0DE
:1000100044C043C042C041C040C03FC03EC0373F63
:1000200037791C3F38783937393877393E315E3F78
:1000300037797931313F7C793D3738795E007F00FF
:100040000000007F000000007F000000007F763F7E
:10005000385E373F31155E066D393F065B4F666D82
:100060007D077F6F11241FBECFE5D1E0DEBFCDBF7E
:1000700010E0A0E6B0E0ECE1FCE002C005900D92DB
:10008000A639B107D9F720E0A6E9B0E001C01D927A
:10009000AA3AB207E1F7A3D1BFC5B2CF8EE790E08D
:1000A0000895CF92DF92EF92FF92CF93DF9381E09A
:1000B000A4D41FD280E090E029D287E0C82EDD24AE
:1000C000D394E12CF12C389A369A8FEC97E0019773
:1000D000F1F700C0000065B170E0605F7F4F072E50
:1000E000000C880B990B20ED37E040E050E045D53F
:1000F000A70196016FD5213D97E0390741055105CC
:1001000020F020ED37E040E050E02B3D81E0380763
:100110004105510520F42BED31E040E050E0E901CC
:10012000C901DCD4DFD120919D0030919E00265082
:100130003F4F2817390728F480E090E0E7D1D3D467
:1001400015C0D0D120919D0030919E002C593F4F79
:100150002817390758F463D4882371F3CB3D91E015
:10016000D90751F3C03D87E0D80731F33898369A64
:100170008FEC97E00197F1F700C0000085B1873E52
:1001800008F0A1CF81E039D420D2823061F08430F0
:1001900029F4D0939700C093960005C0AAD180E0BF
:1001A00090E0B4D190CF81E028D48EE790E0DF9149
:1001B000CF91FF90EF90DF90CF9008959F92AF92F4
:1001C000BF92CF92DF92EF92FF920F931F93CF9344
:1001D000DF938091960090919700892B09F498C045
:1001E00081E00BD48DE032D42FE783E891E02150F9
:1001F00080409040E1F700C00000209196003091CF
:100200009700C1E0253D84E0380708F0C0E081E0B8
:10021000253D344008F480E0C81B0C2E000CDD0B9B
:10022000CE0168EE73E098D48C01CE016AE070E0F4
:1002300093D47C018AE0A82EB12C94E6C92ED12C4F
:100240002091960030919700C901B501AFD4892B58
:1002500019F02C0F3D1F08C02B3D91E03907C8F362
:1002600060FF09C02E0D3F1D30939700209396002C
:100270009924939405C0213D87E03807B8F5912C67
:10028000809196009091970029D48FEB9DE501977E
:10029000F1F700C000009110D3CF809196009091AB
:1002A00097001CD462E084E024D480919600909161
:1002B000970090938E0080938D001092970010927B
:1002C00096009FE723E881E0915020408040E1F7CD
:1002D00000C0000084E0BAD39FE723E881E091509A
:1002E00020408040E1F700C0000012C0CB01B50102
:1002F0005DD4892B09F0B6CFC901B60157D4CB0123
:10030000B50154D4892B09F4BACF200F311FACCFDB
:10031000DF91CF911F910F91FF90EF90DF90CF90E1
:10032000BF90AF909F9008950F931F93CF93DF934B
:10033000BAD120918D0030918E00CAE0D0E0BE018C
:1003400035D462177307E1F0C9016AE070E004D4A4
:1003500095D200918D0010918E00A5D1BE0126D4BA
:10036000CB0170938E0060938D000617170741F044
:10037000B5D362E084E0DF91CF911F910F91B9C3B3
:10038000DF91CF911F910F91089518DFCDDF38983D
:10039000369A8FEC97E00197F1F700C000008FE9E3
:1003A0009FE00197F1F700C0000080918D009091CF
:1003B0008E0094D3369A8FEC97E00197F1F700C046
:1003C000000085B1873E88F700D1813029F0833065
:1003D00061F780E690E0089585E790E00895A3D066
:1003E00081E070D13DD0A6D386E030D364E084E0D4
:1003F00080D37FD12FE783E891E021508040904067
:10040000E1F700C000008EE790E09BD280E090E032
:100410000895369A8FEC97E00197F1F700C000003D
:1004200080919800882329F085B1873E30F482E0DE
:1004300005C095B181E0973E08F080E08093980078
:10044000809198000895389885B1873E40F4369A97
:100450008FEC97E00197F1F700C00000F5CF089509
:100460003D9A85E886B908951F920F920FB60F92B4
:1004700011242F933F934F935F936F937F938F93A9
:100480009F93AF93BF93EF93FF93809199009091C7
:100490009A00985F20919B0030919C00E8EEF3E079
:1004A000893E43E0940728F0BF0180D3260F371F11
:1004B000F7CF90939A008093990030939C002093FB
:1004C0009B00FF91EF91BF91AF919F918F917F9191
:1004D0006F915F914F913F912F910F900FBE0F90B1
:1004E0001F901895F89480919B0090919C007894AF
:1004F0000895F89410929C0010929B0010929A001C
:100500001092990078940895F8940895CF93DF930A
:10051000EC01E8DF8C0F9D1F90939E0080939D005F
:10052000DF91CF91089583B7826083BF89B78260DE
:1005300089BF0895E091A800F091A9009081809171
:100540008F00891718F061E088E0D3C262E084E090
:10055000D0D22091A8003091A90080918F0090E026
:1005600063E070E0F9D2820F931FDC011796ED91E2
:10057000FC911897099567CF80918F008F5F8093CA
:100580008F00E091A800F091A9009081891728F0D0
:1005900080E05CD280E090E0089590E063E070E05D
:1005A000DBD2E80FF91F868151D28091A80090918B
:1005B000A9009C012A5F3F4F80918F0090E063E08B
:1005C00070E0CAD2820F931F08951F93CF93DF93D9
:1005D00026D2182F81E011D238988FED9EE2019734
:1005E000F1F700C00000369A8FEC97E00197F1F721
:1005F00000C000007EDFE091A800F091A900838197
:1006000081110BC08FEF80938F00B6DFEC0171DF9B
:1006100080E991E07BDFFDDE38C085B1873E90F751
:10062000369A8FEC97E00197F1F700C000005ADF8F
:100630008132934090F3E091A800F091A90083816A
:1006400005D262E084E055D2E091A800F091A900C3
:100650000480F581E02D0995F6DE812FCED1E09161
:10066000A800F091A90083811AC03CDF20919D0071
:1006700030919E008217930750F4CBDE813029F42D
:1006800080E991E043DF78DFEC01209771F73CDFF0
:10069000812FB3D14FDF8FEF80938F008881DF915F
:1006A000CF911F91089580919000909191000895AD
:1006B000C098B89A0895B8980895C09AB89A0895BD
:1006C000B99808958093A50014DFFADFF4DF0ADFFC
:1006D0008C3D9540E0F3ECDF8FE99FE00197F1F767
:1006E00000C0000011DF81E08093A6001092A700F7
:1006F0000895E6DFDDDF2FEF86E791E021508040AF
:100700009040E1F700C0000088E893E190939100E9
:10071000809390001092A70008958091A700811106
:10072000E8DFCEDFC8DF2FEF86E791E02150804081
:100730009040E1F700C0000080EE9EE290939100AF
:10074000809390001092A7000895BADFB6DF2FEFD4
:1007500086E791E0215080409040E1F700C0000022
:1007600081E08093A700089580919000909191007E
:1007700081319E4098F08091A700811101C0E5DF92
:100780009ADF8FEC97E00197F1F700C0000095DF4A
:100790008FEC97E00197F1F700C000008091900086
:1007A00090919100885C91099093910080939000C2
:1007B0000895C19AB99A08958091A700811199DF8F
:1007C000F8DF79DF2FEF86E791E0215080409040FD
:1007D000E1F700C0000088E293E2909391008093DB
:1007E00090001092A70008958091A5008823B9F089
:1007F0008091A70081117DDFDCDF5FDF2FEF86E7CF
:1008000091E0215080409040E1F700C0000080E27C
:100810009EE490939100809390001092A700089519
:100820008091A500811103C080EE9EE202C080E2AB
:100830009EE420919000309191002817390798F498
:100840008091A700811101C080DFB3DF8FEC97E0BA
:100850000197F1F700C0000033DF8FEC97E00197BC
:10086000F1F700C0000080919000909191008853B2
:100870009F4F90939100809390000895CF93DF93C2
:1008800081312EE09207E0F02091A500211103C0F4
:1008900040EE5EE202C040E25EE48417950728F075
:1008A000211111C0C0EEDEE210C08D599F4F68ECDF
:1008B00070E07CD1CB0168EC70E04ED1EC0105C05A
:1008C000C0E1DEE002C0C0E2DEE4809190009091E1
:1008D0009100C817D90791F1C83223E2D20799F0E5
:1008E00038F4C83823E1D207A1F4DF91CF9101CFCA
:1008F000C03E2EE2D20751F0C0322EE4D20749F4B6
:10090000DF91CF9171CFDF91CF9156CFDF91CF9112
:1009100004CF8C179D0748F480919000909191002E
:100920008C179D0758F47CDFF7CF80919000909151
:100930009100C817D90710F417DFF7CFDF91CF91D7
:1009400008959093A9008093A8007DDDE091A80010
:10095000F091A9000180F281E02D0995F2CF089570
:10096000C39AC49A8DE08A95F1F70000C398089560
:10097000C4988DE08A95F1F70000C3988DE08A95C0
:10098000F1F70000C49A8DE08A95F1F70000C39A50
:10099000089598E0C4982DE02A95F1F7000080FFB3
:1009A00002C0C39A01C0C398C49A2DE02A95F1F7FA
:1009B00000008695915071F7C498BB98C39A8DE05A
:1009C0008A95F1F7000096B381E0292F287093FFF4
:1009D00080E0222311F0BB9AC3989DE09A95F1F72D
:1009E0000000C49A2DE02A95F1F70000C4989DE01C
:1009F0009A95F1F70000BB9A0895CF93982F8093B2
:100A0000A0006FE0A0D080939200911102C0C0E8D6
:100A100001C0C8E8A5DF8C2FBCDFCF91A9CF8091A2
:100A2000A0000895CF93DF939BDF80E4B2DFA0DFC7
:100A300097DF80ECAEDFC1EAD0E08991AADF80E0E9
:100A4000C53AD807D1F7DF91CF9192CF91E090933B
:100A50009F0090E09093940080939300880F991FDB
:100A6000880F991FFC01E25EFF4FE491A1EAB0E01C
:100A7000EC93FC01E15EFF4FE4911196EC9311972A
:100A8000FC01E05EFF4FE4911296EC931297FC019B
:100A9000EF5DFF4F849113968C93C4CFCF93DF9378
:100AA00010929F008093930090939400C5EAD0E049
:100AB0002AE030E0B9017AD0FC01E65AFF4FE49118
:100AC000EA93CB0140E0C13AD407A1F78091A2009C
:100AD00080688093A200DF91CF9108952FE020934A
:100AE0009200DCDF9FCF81E09091A000911180E027
:100AF00084CF1F93CF93DF93D82F162FC0E0CD174D
:100B000071F0F1DF80E0811741F0EFEDFEE2319707
:100B1000F1F700C000008F5FF6CFCF5FF0CFDF911D
:100B2000CF911F910895E1EAF0E0108211821282C4
:100B3000138278CF87B3886187BB88B3877E88BBF1
:100B400081E05BDFF0CF002480FD060E660F11F020
:100B50008695D1F7802D08950024552704C0080EEE
:100B6000591F880F991F009729F076956795B8F35C
:100B70007105B9F7802D952F0895EE27FF27AA2735
:100B8000BB2708C0A20FB31FE41FF51F220F331F9E
:100B9000441F551F969587957795679598F37040F4
:100BA000A9F7009799F7BD01CF010895AA1BBB1BB8
:100BB00051E107C0AA1FBB1FA617B70710F0A61B5D
:100BC000B70B881F991F5A95A9F780959095BC017E
:100BD000CD010895A1E21A2EAA1BBB1BFD010DC079
:100BE000AA1FBB1FEE1FFF1FA217B307E407F507DD
:100BF00020F0A21BB30BE40BF50B661F771F881FB9
:100C0000991F1A9469F760957095809590959B014E
:0C0C1000AC01BD01CF010895F894FFCFA6
:100C1C00054E0004AF0408AF0409AF040AAF040B7F
:100C2C00AF0402AF0401510004AF0402AF0403C5CA
:100C3C000100000007730501AF0403AF04F401FFCA
:060C4C0088130FFFFF00FA
:00000001FF
