:1000000031C04BC04AC049C048C02EC246C045C0DE
:1000100044C043C042C041C040C03FC03EC0373F63
:1000200037791C3F38783937393877393E315E3F78
:1000300037797931313F7C793D3738795E007F00FF
:100040000000007F000000007F000000007F763F7E
:10005000385E373F31155E066D393F065B4F666D82
:100060007D077F6F11241FBECFE5D1E0DEBFCDBF7E
:1000700010E0A0E6B0E0E0E9FCE002C005900D92DF
:10008000A639B107D9F720E0A6E9B0E001C01D927A
:10009000AB3AB207E1F7A3D1F9C5B2CF8EE790E052
:1000A0000895CF92DF92EF92FF92CF93DF9381E09A
:1000B000DED41FD280E090E029D287E0C82EDD2474
:1000C000D394E12CF12C389A369A8FEC97E0019773
:1000D000F1F700C0000065B170E0605F7F4F072E50
:1000E000000C880B990B20ED37E040E050E07FD505
:1000F000A7019601A9D5213D97E039074105510592
:1001000020F020ED37E040E050E02B3D81E0380763
:100110004105510520F42BED31E040E050E0E901CC
:10012000C90116D5DFD120919D0030919E00265047
:100130003F4F2817390728F480E090E0E7D10DD52C
:1001400015C0D0D120919D0030919E002C593F4F79
:100150002817390758F49DD4882371F3CB3D91E0DB
:10016000D90751F3C03D87E0D80731F33898369A64
:100170008FEC97E00197F1F700C0000085B1873E52
:1001800008F0A1CF81E073D420D2823061F08430B6
:1001900029F4D0939700C093960005C0AAD180E0BF
:1001A00090E0B4D190CF81E062D48EE790E0DF910F
:1001B000CF91FF90EF90DF90CF9008959F92AF92F4
:1001C000BF92CF92DF92EF92FF920F931F93CF9344
:1001D000DF938091960090919700892B09F498C045
:1001E00081E045D48DE06CD42FE783E891E0215085
:1001F00080409040E1F700C00000209196003091CF
:100200009700C1E0253D84E0380708F0C0E081E0B8
:10021000253D344008F480E0C81B0C2E000CDD0B9B
:10022000CE0168EE73E0D2D48C01CE016AE070E0BA
:10023000CDD47C018AE0A82EB12C94E6C92ED12C15
:100240002091960030919700C901B501E9D4892B1E
:1002500019F02C0F3D1F08C02B3D91E03907C8F362
:1002600060FF09C02E0D3F1D30939700209396002C
:100270009924939405C0213D87E03807B8F5912C67
:10028000809196009091970063D48FEB9DE5019744
:10029000F1F700C000009110D3CF809196009091AB
:1002A000970056D462E084E05ED4809196009091ED
:1002B000970090938E0080938D001092970010927B
:1002C00096009FE723E881E0915020408040E1F7CD
:1002D00000C0000084E0F4D39FE723E881E0915060
:1002E00020408040E1F700C0000012C0CB01B50102
:1002F00097D4892B09F0B6CFC901B60191D4CB01AF
:10030000B5018ED4892B09F4BACF200F311FACCFA1
:10031000DF91CF911F910F91FF90EF90DF90CF90E1
:10032000BF90AF909F9008950F931F93CF93DF934B
:10033000BAD120918D0030918E00CAE0D0E0BE018C
:100340006FD462177307E1F0C9016AE070E03ED430
:10035000C8D200918D0010918E00A5D1BE0160D44D
:10036000CB0170938E0060938D000617170741F044
:10037000EFD362E084E0DF91CF911F910F91F3C33F
:10038000DF91CF911F910F91089518DFCDDF38983D
:10039000369A8FEC97E00197F1F700C000008FE9E3
:1003A0009FE00197F1F700C0000080918D009091CF
:1003B0008E00CED3369A8FEC97E00197F1F700C00C
:1003C000000085B1873E88F700D1813029F0833065
:1003D00061F780E690E0089585E790E00895A3D066
:1003E00081E07CD13DD0E0D386E06AD364E084E054
:1003F000BAD394D12FE783E891E021508040904018
:10040000E1F700C000008EE790E0D5D280E090E0F8
:100410000895369A8FEC97E00197F1F700C000003D
:1004200080919800882329F085B1873E30F482E0DE
:1004300005C095B181E0973E08F080E08093980078
:10044000809198000895389885B1873E40F4369A97
:100450008FEC97E00197F1F700C00000F5CF089509
:100460003D9A85E886B908951F920F920FB60F92B4
:1004700011242F933F934F935F936F937F938F93A9
:100480009F93AF93BF93EF93FF93809199009091C7
:100490009A00985F20919B0030919C00E8EEF3E079
:1004A000893E43E0940728F0BF01BAD3260F371FD7
:1004B000F7CF90939A008093990030939C002093FB
:1004C0009B00FF91EF91BF91AF919F918F917F9191
:1004D0006F915F914F913F912F910F900FBE0F90B1
:1004E0001F901895F89480919B0090919C007894AF
:1004F0000895F89410929C0010929B0010929A001C
:100500001092990078940895F8940895CF93DF930A
:10051000EC01E8DF8C0F9D1F90939E0080939D005F
:10052000DF91CF91089583B7826083BF89B78260DE
:1005300089BF0895E091A900F091AA00908180916F
:100540008F00891718F061E088E00DC362E084E055
:100550000AD32091A9003091AA0080918F0090E0E9
:1005600063E070E033D3820F931FDC011796ED91A7
:10057000FC911897099567CF80918F008F5F8093CA
:100580008F00E091A900F091AA009081891728F0CE
:1005900080E096D280E090E0089590E063E070E023
:1005A00015D3E80FF91F86818BD28091A900909115
:1005B000AA009C012A5F3F4F80918F0090E063E08A
:1005C00070E004D3820F931F08951F93CF93DF939E
:1005D00060D2182F81E04BD238988FED9EE20197C0
:1005E000F1F700C00000369A8FEC97E00197F1F721
:1005F00000C000007EDFE091A900F091AA00838195
:1006000081110BC08FEF80938F00B6DFEC0171DF9B
:1006100080E991E07BDFFDDE38C085B1873E90F751
:10062000369A8FEC97E00197F1F700C000005ADF8F
:100630008132934090F3E091A900F091AA00838168
:100640003FD262E084E08FD2E091A900F091AA004D
:100650000480F581E02D0995F6DE812F08D2E09126
:10066000A900F091AA0083811AC03CDF20919D006F
:1006700030919E008217930750F4CBDE813029F42D
:1006800080E991E043DF78DFEC01209771F73CDFF0
:10069000812FEDD14FDF8FEF80938F008881DF9125
:1006A000CF911F91089580919000909191000895AD
:1006B00080919F00811102C0C098B89A08958091DE
:1006C0009F00811101C0B898089580919F00811109
:1006D00002C0C09AB89A0895B99808958093A60068
:1006E00008DFFADF80919F00882329F0FBDE8E3D32
:1006F0009540E0F30CC0E3DFF5DE8C3D9540E0F380
:10070000D7DF8FE99FE00197F1F700C00000FCDE22
:1007100081E08093A7001092A80008958091A7001F
:10072000811101C0DBDFD8DFC3DF2FEF86E791E067
:10073000215080409040E1F700C0000088E893E13C
:1007400090939100809390001092A800089580915A
:10075000A700811101C0C2DF8091A8008111DEDFF6
:10076000BBDFADDF2FEF86E791E021508040904066
:10077000E1F700C0000080EE9EE29093910080932C
:1007800090001092A8000895A7DF9FDF2FEF86E763
:1007900091E0215080409040E1F700C0000081E0EE
:1007A0008093A80008958091A700811101C096DF71
:1007B000809190009091910081319E4098F08091BD
:1007C000A800811101C0E0DF7ADF8FEC97E001978C
:1007D000F1F700C0000079DF8FEC97E00197F1F7A7
:1007E00000C000008091900090919100885C910978
:1007F00090939100809390000895C19AB99A0895BA
:100800008091A700811101C069DF8091A80081114A
:1008100085DFF3DF54DF2FEF86E791E02150804042
:100820009040E1F700C0000088E293E290939100CD
:10083000809390001092A80008958091A6008823CC
:10084000E1F08091A700811101C048DF8091A800EC
:10085000811164DFD2DF39DF2FEF86E791E021508D
:1008600080409040E1F700C0000080E29EE4909359
:100870009100809390001092A80008958091A700A5
:10088000811101C02BDF8091A600811103C080EE91
:100890009EE202C080E29EE420919000309191009F
:1008A0002817390798F48091A800811101C06CDFE6
:1008B000A4DF8FEC97E00197F1F700C000000CDF98
:1008C0008FEC97E00197F1F700C000008091900055
:1008D0009091910088539F4F909391008093900046
:1008E0000895CF93DF93EC018091A700811101C09F
:1008F000F5DEC1312EE0D207E8F08091A60081112B
:1009000003C020EE3EE202C020E23EE4C217D3075D
:1009100028F0811112C0C0EEDEE211C0CE018D5967
:100920009F4F68EC70E07CD1CB0168EC70E04ED159
:10093000EC0105C0C0E1DEE002C0C0E2DEE480916F
:10094000900090919100C817D90791F1C83223E225
:10095000D20799F038F4C83823E1D207A1F4DF9127
:10096000CF91DCCEC03E2EE2D20751F0C0322EE451
:10097000D20749F4DF91CF9160CFDF91CF9140CF83
:10098000DF91CF91E4CE8C179D0748F480919000C1
:10099000909191008C179D0758F470DFF7CF8091EC
:1009A000900090919100C817D90710F4FCDEF7CFA2
:1009B000DF91CF9108959093AA008093A90043DD21
:1009C000E091A900F091AA000180F281E02D099543
:1009D000F2CF0895C39AC49A8DE08A95F1F700008A
:1009E000C3980895C4988DE08A95F1F70000C398E4
:1009F0008DE08A95F1F70000C49A8DE08A95F1F7B1
:100A00000000C39A089598E0C4982DE02A95F1F764
:100A1000000080FF02C0C39A01C0C398C49A2DE0B1
:100A20002A95F1F700008695915071F7C498BB980C
:100A3000C39A8DE08A95F1F7000096B381E0292FE3
:100A4000287093FF80E0222311F0BB9AC3989DE0A9
:100A50009A95F1F70000C49A2DE02A95F1F700006D
:100A6000C4989DE09A95F1F70000BB9A0895CF9342
:100A7000982F8093A1006FE0A0D0809392009111F5
:100A800002C0C0E801C0C8E8A5DF8C2FBCDFCF9151
:100A9000A9CF8091A1000895CF93DF939BDF80E4DD
:100AA000B2DFA0DF97DF80ECAEDFC2EAD0E0899151
:100AB000AADF80E0C63AD807D1F7DF91CF9192CF75
:100AC00091E09093A00090E0909394008093930025
:100AD000880F991F880F991FFC01E25EFF4FE49178
:100AE000A2EAB0E0EC93FC01E15EFF4FE4911196C5
:100AF000EC931197FC01E05EFF4FE4911296EC93AA
:100B00001297FC01EF5DFF4F849113968C93C4CF35
:100B1000CF93DF931092A000809393009093940062
:100B2000C6EAD0E02AE030E0B9017AD0FC01E65A0A
:100B3000FF4FE491EA93CB0140E0C23AD407A1F71A
:100B40008091A30080688093A300DF91CF910895E6
:100B50002FE020939200DCDF9FCF81E09091A100F5
:100B6000911180E084CF1F93CF93DF93D82F162F5E
:100B7000C0E0CD1771F0F1DF80E0811741F0EFEDBB
:100B8000FEE23197F1F700C000008F5FF6CFCF5F34
:100B9000F0CFDF91CF911F910895E2EAF0E010824B
:100BA00011821282138278CF87B3886187BB88B3A2
:100BB000877E88BB81E05BDFF0CF002480FD060EDE
:100BC000660F11F08695D1F7802D089500245527E2
:100BD00004C0080E591F880F991F009729F07695B9
:100BE0006795B8F37105B9F7802D952F0895EE2715
:100BF000FF27AA27BB2708C0A20FB31FE41FF51FBA
:100C0000220F331F441F551F96958795779567953B
:100C100098F37040A9F7009799F7BD01CF010895A7
:100C2000AA1BBB1B51E107C0AA1FBB1FA617B70712
:100C300010F0A61BB70B881F991F5A95A9F780952E
:100C40009095BC01CD010895A1E21A2EAA1BBB1BF1
:100C5000FD010DC0AA1FBB1FEE1FFF1FA217B30788
:100C6000E407F50720F0A21BB30BE40BF50B661F9E
:100C7000771F881F991F1A9469F760957095809562
:100C800090959B01AC01BD01CF010895F894FFCF71
:100C9000054E0004E90408E90409E9040AE9040B23
:100CA000E90402E90401510004E90402E90403C56E
:100CB0000100000007AD0501E90403E904F401FFA8
:060CC00088130FFFFF0086
:00000001FF
